:020000020000FC
:100000004FEF4DBF41E24EBF40EF40930A014FEF2B
:1000100047B948B900240C940D003FEE1127143065
:10002000E1F330930B014FEF4A95F1F7409109014D
:100030004F704F3059F021E00027043039F0542F31
:10004000522341F00395220F0C941D00330F13959A
:100050000C940F00133041F1033061F1003040E0A7
:100060001407B9F1003041E0140799F1003042E083
:10007000140779F1013040E0140759F1013041E0F3
:10008000140739F1013042E0140719F1023040E061
:100090001407F9F0023041E01407D9F0023042E0D1
:1000A0001407B9F00C946900003079F0013079F050
:1000B0000C946900103021F0113029F00C94690083
:1000C00066270C9469000C940D000C9469000C9444
:0600D00069000C940D0014
:00000001FF
