:020000020000FC
:0C0000000C9430000C94A7000C94B80085
:10005C000C9449000FEF0DBF01E20EBF112733279F
:10006C004427002466270FEF07B90AE000936900C4
:10007C000DB303600DBB02E005BD01E000936E0003
:10008C0078940C94D000383019F04030D9F518958C
:10009C000FB70F93DF93CF939F938F9380910202AF
:1000AC0090910302019684380EE1900789F408B10F
:1000BC00001539F4001501F06395643021F018B97E
:1000CC0012C008B810C008B81127332744270BC03A
:1000DC0080930202909303028F919F91CF91DF91B5
:1000EC000F910FBF1895C2E0D2E055275993588352
:1000FC0080910002909101020196809300029093EE
:10010C000102EACF0FB70F93DF93CF939F938F9397
:10011C0080910202909103020196813A07E09007C8
:10012C00B9F6C2E0D2E0552759935883809100026A
:10013C00909101020196809300029093010240E09D
:10014C00CBCF403009F0189543950F930FB70F9311
:10015C0000E019D0102B18B90F910FBF0F913395E8
:10016C0022271895403009F0189543950F930FB737
:10017C000F9300E808D0102B18B90F910FBF0F91F7
:10018C00339522271895303021F0069523952317A7
:10019C00E0F30895C0E0D2E0552759935883C2E0AC
:0A01AC00D2E0552759935883FFCF86
:00000001FF
