:020000020000FC
:0C0000000C9430000C947E000C948F00D7
:10005C000C944A000FEF0DBF01E20EBF112733279E
:10006C0044275527222766270FEF07B90AE000938C
:10007C0069000DB303600DBB02E005BD01E0009308
:10008C006E0078940C94A5000FB70F93DF93CF9369
:10009C009F938F9380910202909103020196843872
:1000AC000EE19007D1F44427533031F0603021F445
:1000BC0028B96395539502C008B86627C2E0D2E010
:1000CC000027099308838091000290910102019608
:1000DC00809300029093010204C0809302029093DB
:1000EC0003028F919F91CF91DF910F910FBF1895C4
:1000FC00403009F0189543950F930FB70F9300E814
:10010C0008B9110F0F910FBF0F913395383099F03B
:10011C001895403009F0189543950F930FB70F932E
:10012C00110F116000E408B90F910FBF0F913395B7
:10013C00383009F01895212F552733271895C0E032
:10014C00D2E0002709930883C2E0D2E0002709938C
:04015C000883FFCF46
:00000001FF
