:020000020000FC
:0C0000000C9430000C94A7000C94B90084
:10005C000C944A000FEF0DBF01E20EBF112733279E
:10006C0044270024662711240FEF07B90AE00093F8
:10007C0069000DB303600DBB02E005BD01E0009308
:10008C006E0078940C94D400383019F0403059F547
:10009C0018950FB70F93DF93CF939F938F93809106
:1000AC00020290910302019684380EE1900781F4CC
:1000BC0008B1001529F46395633021F018B932C0EA
:1000CC0008B830C008B811273327442766272AC040
:1000DC0080930202909303028F919F91CF91DF91B5
:1000EC000F910FBF18950FB70F93DF93CF939F937B
:1000FC008F9380910202909103020196813A07E05E
:10010C00900731F7C2E0D2E055275993588380917C
:10011C0000029091010201968093000290930102DB
:10012C0040E0DACFC2E0D2E0552759935883809152
:10013C0000029091010201968093000290930102BB
:10014C00CBCF403009F0189543950F930FB70F9311
:10015C0000E01DD0102B0F910FBF0F91339522276C
:10016C00383099F01895403009F0189543950F9355
:10017C000FB70F9300E80BD0102B0F910FBF0F91FF
:10018C0033952227383009F0189518B91895303066
:10019C0021F0069523952317E0F30895C0E0D2E0F3
:1001AC00552759935883C2E0D2E055275993588369
:0201BC00FFCF73
:00000001FF
