:020000020000FC
:0C0000000C9430000C949F000C94AF0096
:10005C000C9448000FEF0DBF01E20EBF11273327A0
:10006C00442700240FEF07B90AE0009369000DB391
:10007C0003600DBB02E005BD01E000936E007894B7
:10008C000C94C600383019F0403049F518950FB76C
:10009C000F93DF93CF939F938F9380910202909154
:1000AC000302019684380EE19007C1F508B10015E2
:1000BC0011F4001511F008B803C018B9539500C01D
:1000CC00C2E0D2E055275993588380910002909159
:1000DC0001020196809300029093010223C00FB796
:1000EC000F93DF93CF939F938F9380910202909104
:1000FC0003020196813A07E0900781F4C2E0D2E056
:10010C0055275993588380910002909101020196D2
:10011C00809300029093010240E004C0809302029D
:10012C00909303028F919F91CF91DF910F910FBF0D
:10013C001895403009F0189543950F930FB70F930E
:10014C0000E017D0102B0F910FBF0F913395222782
:10015C001895403009F0189543950F930FB70F93EE
:10016C0000E807D0102B0F910FBF0F91339522276A
:10017C001895303021F0069523952317E0F3089558
:10018C00C0E0D2E0552759935883C2E0D2E05527FE
:06019C0059935883FFCFC8
:00000001FF
