:020000020000FC
:040000000C9430002C
:10005C000C94370001E20EBF0FEF0DBF0FEF07B985
:10006C0041C00FB70F93DF93CF939F938F938091E2
:10007C00020290910302019684380EE1900799F4E4
:10008C0017952795A8F028B9C2E0D2E0002709936C
:10009C0008838091000290910102019680930002E6
:1000AC009093000218C0809302029093030213C035
:1000BC0033273795132B28B9C2E0D2E000270993D8
:1000CC0008838091000290910102019680930002B6
:1000DC009093000200C08F919F91CF91DF910F916F
:1000EC000FBF18951FEF2FEF10E120EF28B9C2E0DA
:1000FC00D2E0002709930883C0E0D2E000270993DF
:10010C00088300E004BD02E005BD01E000936E0031
:04011C007894FFCF05
:00000001FF
