:020000020000FC
:0C0000000C9430000C9482000C949400CE
:10005C000C944E000FEF0DBF01E20EBFA4E0B2E016
:10006C00E4E0F2E01127332744275527222766279F
:10007C000FEF07B90AE0009369000DB303600DBBE5
:10008C0002E005BD01E000936E0078940C94AC0086
:10009C000FB70F93DF93CF939F938F9380910202AF
:1000AC0090910302019684380EE19007D1F4442715
:1000BC00533031F0603021F428B96395539502C068
:1000CC0008B86627C2E0D2E0002709930883809124
:1000DC00000290910102019680930002909301021C
:1000EC0004C080930202909303028F919F91CF9151
:1000FC00DF910F910FBF1895403009F0189543957B
:10010C000F930FB70F9300E808B9110F10830F91DD
:10011C000FBF0F9133953830A1F01895403009F08E
:10012C00189543950F930FB70F93110F1160108310
:10013C0000E408B90F910FBF0F913395383009F0D7
:10014C00189521911127552733271895C0E0D2E037
:10015C00002709930883C2E0D2E0002709930883A3
:02016C00FFCFC3
:00000001FF
