:020000020000FC
:0C0000000C9430000C9495000C94AA00A5
:10005C000C944E000FEF0DBF01E20EBFA4E0B2E016
:10006C00E4E0F2E01127332744275527222766279F
:10007C000FEF07B90AE0009369000DB303600DBBE5
:10008C0002E005BD01E000936E0078940C94D4005E
:10009C000FB70F93DF93CF939F938F9380910002B1
:1000AC0090910102019684380EE19007C9F4533007
:1000BC0031F0603021F428B96395539502C008B82B
:1000CC006627C0E0D2E000270993088380910002E4
:1000DC00909101020196809300029093010218C046
:1000EC00809300029093010280910202909103028E
:1000FC0001968D3003E0900739F44427C2E0D2E03A
:10010C0000270993088304C0809302029093030292
:10011C008F919F91CF91DF910F910FBF1895403028
:10012C0009F0189543950F930FB70F930CB302304A
:10013C0031F100E808B9110F10830F910FBF0F9127
:10014C0033953830B9F01895403009F0189543952F
:10015C000F930FB70F930CB3013089F0110F11608F
:10016C00108300E408B90F910FBF0F91339538300D
:10017C0009F018952191112755273327189500E080
:10018C000DBB08B90FEFAE17BF0721F00D93AE17DB
:10019C00BF07E1F70F910FBF0F911895C0E0D2E0A8
:1001AC00002709930883C2E0D2E000270993088353
:0201BC00FFCF73
:00000001FF
