:020000020000FC
:0C0000000C9430000C94AC000C94C00078
:10005C000C9450000FEF0DBF01E20EBFA6E0B2E012
:10006C00E6E0F2E01127332755272227662755248F
:10007C00662400240FEF07B900E0009369000DB36C
:10008C0003600DBB02E005BD01E000936E007894A7
:10009C000C94DF000FB70F93DF93CF939F938F9345
:1000AC00809100029091010201963497AE17BF0720
:1000BC001CF034960C946700349682340FE0900751
:1000CC0021F084380EE1900709F5AE17BF077CF4D8
:1000DC0008B8603029F42C9128B96395539507C062
:1000EC0008B86627533009F002C055271196C0E0B6
:1000FC00D2E00027099308838091000290910102BD
:10010C000196809300029093010204C08093000238
:10011C009093010280910402909105020196833C18
:10012C0000E0900741F455246624C4E0D2E0002797
:10013C000993088304C080930402909305028F9165
:10014C009F91CF91DF910F910FBF1895062D013024
:10015C0031F1052D003009F0189553940F930FB71A
:10016C000F93110F0F910FBF0F91339538B9383092
:10017C00E9F01895052D013091F0062D003009F0AD
:10018C00189563940F930FB70F93110F11600F9184
:10019C000FBF0F91339538B9383041F018950027BF
:1001AC000CBB08B90FEF202F0C94300011933327A0
:1001BC001895C0E0D2E0002709930883C2E0D2E092
:0801CC00002709930883FFCF0F
:00000001FF
