:020000020000FC
:0C0000000C9430000C9491000C94A400AF
:10005C000C944F000FEF0DBF01E20EBFA4E0B2E015
:10006C00E4E0F2E01127332744275527222766279F
:10007C0077270FEF07B90AE0009369000DB303600F
:10008C000DBB02E005BD01E000936E0078940C946A
:10009C00BD000FB70F93DF93CF939F938F938091F6
:1000AC000202909103020196703034F484380EE110
:1000BC00900731F5442708C077276030B9F7813AAB
:1000CC0007E09007E9F44427533031F0603021F415
:1000DC0028B96395539505C008B86627533008F0C6
:1000EC002227C2E0D2E00027099308838091000206
:1000FC00909101020196809300029093010204C03A
:10010C0080930202909303028F919F91CF91DF9184
:10011C000F910FBF1895403009F0189543957395C2
:10012C000F930FB70F9300E808B9110F10830F91BD
:10013C000FBF0F9133953830A9F01895403009F066
:10014C001895439573950F930FB70F93110F11607B
:10015C00108300E408B90F910FBF0F91339538301D
:10016C0009F0189521911127552733271895C0E0D0
:10017C00D2E0002709930883C2E0D2E0002709935C
:04018C000883FFCF16
:00000001FF
